:020000040800F2
:1000000000100020F52700083B28000841280008C0
:1000100000000000000000000000000000000000E0
:100020000000000000000000000000004728000859
:1000300000000000000000004D28000819290008F9
:1000400053280008592800085F2800086528000880
:100050006B28000871280008772800087D28000810
:100060000000000083280008892800088F28000865
:10007000952800089B280008A1280008A728000848
:10008000AD2800080000000000000000D52800088E
:1000900000000000ED28000805290008B32800082A
:1000A00000000000B928000800000000BF28000878
:1000B0000000000000000000000000000000000040
:1000C00010B5064C2378002B07D1054B002B02D02E
:1000D000044800E000BF0123237010BD0C00002085
:1000E0000000000078290008044B10B5002B03D055
:1000F0000349044800E000BF10BDC04600000000F6
:100100001000002078290008002243088B4274D395
:1001100003098B425FD3030A8B4244D3030B8B4208
:1001200028D3030C8B420DD3FF22090212BA030C11
:100130008B4202D31212090265D0030B8B4219D3F2
:1001400000E0090AC30B8B4201D3CB03C01A524112
:10015000830B8B4201D38B03C01A5241430B8B425A
:1001600001D34B03C01A5241030B8B4201D30B0343
:10017000C01A5241C30A8B4201D3CB02C01A52416A
:10018000830A8B4201D38B02C01A5241430A8B422D
:1001900001D34B02C01A5241030A8B4201D30B0216
:1001A000C01A5241CDD2C3098B4201D3CB01C01A30
:1001B000524183098B4201D38B01C01A524143093A
:1001C0008B4201D34B01C01A524103098B4201D328
:1001D0000B01C01A5241C3088B4201D3CB00C01A95
:1001E000524183088B4201D38B00C01A524143080D
:1001F0008B4201D34B00C01A5241411A00D2014632
:10020000524110467047FFE701B5002000F006F8A4
:1002100002BDC0460029F7D076E770477047C04658
:1002200070B588B01422002103A802F09DFB184B82
:10023000596980208002014359615A690240019244
:10024000019A5A698021C9020A435A615B690B40CD
:100250000293029B802636019025ED050022310095
:10026000280001F029FB80235B0103930024049400
:10027000059403A9074801F05FFA0396012304934C
:100280000594069403A9280001F056FA08B070BD41
:10029000001002400004004872B6FEE700B585B0C9
:1002A0000C22002101A802F05FFB2148214B0360D2
:1002B000002343608360C360012202610421416125
:1002C000037643768376C376C221FF31C161036230
:1002D0009E39FF394354826200F0B8FC00281FD1D8
:1002E0000423019380235B01029380235B05039326
:1002F00001A90F4800F06CFD002813D108230193D9
:1003000001A90B4800F064FD00280DD109230193D9
:1003100001A9074800F05CFD002807D105B000BD29
:10032000FFF7BAFFFFF7B8FFFFF7B6FFFFF7B4FF1D
:10033000280000200024014000B593B008220021CD
:1003400010A802F011FB1C22002109A802F00CFBEE
:100350002022002101A802F007FB2B482B4B036051
:100360000023436083602A4AC26003614361836162
:1003700001F0C4FE00283AD100231093119310A974
:10038000214801F0D1FF002833D1002309930A93BB
:100390000B930C930D930E930F93002209A91A4807
:1003A00001F04AFD002826D1042209A9164801F0CF
:1003B00043FD002821D1082209A9134801F03CFD82
:1003C00000281CD100230193029303930493059307
:1003D000802292010692089301A90B4801F0D6FFF2
:1003E00000280ED1084800F09FFA13B000BDFFF7B7
:1003F00053FFFFF751FFFFF74FFFFFF74DFFFFF7E9
:100400004BFFFFF749FFC04668000020002C014069
:10041000FFFF000000B58BB01022002106A802F0FB
:10042000A3FA1022002102A802F09EFA082200215D
:10043000684602F099FA1C488023DB05036000231C
:100440004360836001225242C2600361836101F014
:100450001DFE00281FD180235B01069306A91248C8
:1004600001F04EFD002818D100230293039304935A
:10047000059302A90C4801F0E3FE00280FD1502398
:100480000093002301936946074801F04DFF0028BF
:1004900007D10BB000BDFFF7FFFEFFF7FDFEFFF732
:1004A000FBFEFFF7F9FEC0463803002000B58DB013
:1004B0002422002103A802F057FA0822002101A8F3
:1004C00002F052FA1048114B03600023436083602E
:1004D0000F4AC2600361836101330393059309935B
:1004E00003A901F043FE00280AD1002301930293DF
:1004F00001A9054801F018FF002803D10DB000BD87
:10050000FFF7CAFEFFF7C8FEEC030020000400401E
:10051000FFFF000010B50948094B03602F2343601B
:10052000002383606322C26003614361836101F041
:10053000ADFD002800D110BDFFF7AEFE8402002003
:100540000048014010B50B480B4B036096231B027B
:10055000436000238360C36003610C2242618361B6
:10056000C3610362436202F00DF9002800D110BD9F
:10057000FFF792FEA00400200038014010B50948A2
:10058000094B03602F23436000238360074AC26046
:100590000361836101F07AFD002800D110BDFFF7EF
:1005A0007BFEC0461C010020002000400F270000F9
:1005B00010B50948094B03602F2343600023836073
:1005C000074AC26003614361836101F05FFD002857
:1005D00000D110BDFFF760FED001002000440140B3
:1005E0008713000010B594B03022002108A802F053
:1005F000BBF910241022002104A802F0B5F9102242
:100600000021684602F0B0F912230893113B0B93C6
:100610000D930C940E9401331093A0239B0312931B
:1006200008A800F07BFC002817D107230493053BA2
:100630000593002306930793012104A800F0F4FE1C
:1006400000280CD10123009300230293684600F098
:100650009BFF002805D114B010BDFFF71DFEFFF76A
:100660001BFEFFF719FE000010B501F043F8FFF77D
:10067000B9FFFFF7D5FDFFF711FEFFF75DFEFFF7AE
:10068000C9FEFFF713FFFFF745FFFFF75BFFFFF71B
:1006900075FFFFF78DFF074801F058FA064801F093
:1006A00055FA064801F052FA00F0B4F900F04EFA9B
:1006B000FCE7C0461C010020D0010020840200207D
:1006C00010B504000A4B02689A4208D0094B226810
:1006D0009A4207D02268084B9A4206D010BD00F01B
:1006E0009BFAF3E700F07EFAF4E700F095F9F5E7FE
:1006F00000200040004401400048014082B00A4B05
:10070000996901221143996199690A400092009AFE
:10071000DA69802149050A43DA61DB690B400193FC
:10072000019B02B07047C0460010024010B588B06F
:1007300004001422002103A802F016F92268194BC4
:100740009A4201D008B010BD174B996980208000F3
:10075000014399619A6902400092009A5969802088
:100760008002014359615A6902400192019A5A6913
:100770008021C9020A435A615B690B400293029BC4
:100780001023039303240494902003A9C00500F0D0
:10079000D3FF039404940023059303A9034800F0B6
:1007A000CBFFCFE7002401400010024000040048C6
:1007B00082B00268074B9A4201D002B07047064AE5
:1007C0009169802000010143916193690340019385
:1007D000019BF2E7002C01400010024010B58AB0E6
:1007E00004001422002105A802F0BEF8236880222C
:1007F000D20593420AD0304A934224D02F4A9342E2
:1008000034D02F4A934244D00AB010BD2D4BD96941
:1008100001221143D961D9690A400092009A5A69AC
:10082000802189020A435A615B690B400193019B55
:1008300007230593053B06930993902005A9C0055E
:1008400000F07AFFE0E71F4AD169802040000143B1
:10085000D161D36903400293029B00220021ED384D
:1008600001F030F8132001F05DF8CDE7154A9169E9
:100870008020800201439161936903400393039BAD
:1008800000220121152001F01DF8152001F04AF881
:10089000BAE70C4A91698020C002014391619369D3
:1008A00003400493049B00220321162001F00AF860
:1008B000162001F037F8A7E700200040004401406F
:1008C000004801400010024010B588B00400142216
:1008D000002103A802F048F82268114B9A4201D087
:1008E00008B010BD0F4BD96902221143D961D969F3
:1008F0001140019101995969802080020143596199
:100900005B6903400293029BC02303930492BF3BA5
:100910000793902003A9C00500F00EFFE0E7C04652
:10092000000400400010024010B588B004001422FA
:10093000002103A802F018F82268184B9A4201D04F
:1009400008B010BD164B59698020C002014359619F
:100950005A6902400192019A5A69802189020A4328
:100960005A615B690B400293029BE0231B020393D5
:1009700002240494079403A90A4800F0DDFEE02352
:10098000DB000393049400230593069307949020BF
:1009900003A9C00500F0D0FED2E7C046002C0140FC
:1009A000001002400004004810B588B00400142272
:1009B000002103A801F0D8FF2268114B9A4201D010
:1009C00008B010BD0F4B99698020C00101439961A7
:1009D0009A6902400192019A5A698021C9020A4328
:1009E0005A615B690B400293029BC0230393BE3B99
:1009F00004930133069303A9034800F09DFEDFE74B
:100A00000038014000100240000400487047704761
:100A10007047704770470000024A13680133136043
:100A20007047C04624050020014B18687047C04637
:100A30002405002010B50400FFF7F6FF032C0FD0AB
:100A400006D8012C09D0022C09D1074BD86106E049
:100A5000042C04D1044BD86201E0034B586110BD53
:100A6000014B5862FBE7C0462405002010B5040086
:100A7000FFF7DAFF032C1ED008D8012C18D0022C67
:100A800002D1154BDB6907E0002305E0042C02D1FD
:100A9000114BDB6A00E00023C31A032C18D00DD8D9
:100AA000012C11D0022C12D10B4A936410620EE07B
:100AB000094B5B69F0E7084B5B6AEDE7042C06D154
:100AC000054A1365106302E0034A5364906110BD48
:100AD000014AD3649062FAE72405002010B50400AF
:100AE000FFF7A2FF032C1ED008D8012C18D0022C2F
:100AF00002D1154B9B6B07E0002305E0042C02D1CB
:100B0000114B1B6C00E00023C31A032C18D00DD826
:100B1000012C11D0022C12D10B4A936590630EE088
:100B2000094B5B6BF0E7084BDB6BEDE7042C06D160
:100B3000054A1366106402E0034A5365506310BD12
:100B4000014AD365D063FAE72405002010B50F4AA7
:100B50006F23D35C012B09D00520FFF76BFF052025
:100B6000FFF784FF0520FFF7B9FF10BD1300084A07
:100B7000DA676F22002199540420FFF75BFF0420FD
:100B8000FFF774FF0420FFF7A9FFEEE7240500201C
:100B9000130A000810B5114B5A68501C58606C229B
:100BA000012199546331FFF735FB002906D10B4B26
:100BB0001A6901321A616F2201319954074B084AB0
:100BC0001A676C22002199540120FFF733FF01209E
:100BD000FFF74CFF0120FFF781FF10BD2405002027
:100BE0000D0A000810B50A4B9A6801329A606D220E
:100BF0000121995407495967002199540220FFF7B0
:100C000019FF0220FFF732FF0220FFF767FF10BD38
:100C1000240500200F0A000810B50A4BDA680132DB
:100C2000DA606E220121995407499967002199548D
:100C30000320FFF7FFFE0320FFF718FF0320FFF755
:100C40004DFF10BD24050020110A000870B5041ED8
:100C500000D1B4E0836B002B00D180E0A36BDB06F6
:100C600000D5A6E022689168042005000D400842E6
:100C700000D09EE0A16B534B19400633FF3319435C
:100C8000A163916801330B40012B6ED0D36818210A
:100C90008B43A1680B43D360226813699B009B08B8
:100CA00061680B4313612268D36847490B40D360E6
:100CB000237E9B03627ED2031343A17E4A03134328
:100CC000A26A012A58D0802252011343E2681343DA
:100CD0002269022A52D02B432422A25C52001343E1
:100CE000E27E012A4CD0E269C221FF318A4202D061
:100CF000216A0A4313432168CA681A43CA60E26A38
:100D0000802149058A420DD0012A0BD0022A09D040
:100D1000032A07D0042A05D0052A03D0062A01D0C9
:100D2000072A0AD12068416907229143416120685E
:100D30004169E56A2A400A4342612268D268234930
:100D40000A409A422BD0A36B12229343023A1343D8
:100D5000A363E36B0F3A1343E36301202EE0C36305
:100D600034228354FFF7E2FC78E71368DB079AD458
:100D7000D3681B0497D489E72A00A6E70425AAE7CD
:100D8000002903D1802252021343ACE7A26B202139
:100D90000A43A263E26B1F390A43E263A3E700231D
:100DA000E363A36B03229343023A1343A36300203C
:100DB00004E0A36B10221343A363012070BD012044
:100DC000FCE7C046FDFEFFFF1902FEFFE7FF3F8381
:100DD00030B583B00400002301933433C35C012B8E
:100DE00000D18AE034230122C25403689A68520772
:100DF00075D4434A4868904256D09A6A01200D68DB
:100E0000A84002439A62E36A8022520593421ED0B0
:100E1000012B1CD0022B1AD0032B18D0042B16D078
:100E2000052B14D0062B12D0072B10D02268506946
:100E3000072303408868984209D0506907239843E4
:100E40005061206842698D682B40134343610B68F1
:100E50001A00103A022A4CD82A4A1268102B0ED0D7
:100E6000112B09D080235B041343264A13600B68BF
:100E7000102B07D0002037E08023DB03F4E780232A
:100E80001B04F1E7204B18682049FFF73DF9830068
:100E90001B185B00019302E0019B013B0193019B46
:100EA000002BF9D100201FE09A6A01200D68A840AC
:100EB00082439A620B681A00103A022A1BD8114A20
:100EC0001268102B09D0112B05D0114B13400D4A7D
:100ED0001360002008E00F4BF8E70F4BF6E7836B39
:100EE000202213438363012034230022E25403B001
:100EF00030BD0020F8E70020F6E70220F7E7C04603
:100F000001100000082701400800002040420F00A7
:100F1000FFFFFFFEFFFFBFFFFFFF7FFF70B582B047
:100F2000041E00D12EE20368DB0726D5AE4B5A68BB
:100F30000C231340042B18D0AB4B5A680C231340DE
:100F4000082B0ED06368012B3CD0002B51D1A64B4F
:100F50001A68A6490A401A601A68A5490A401A6028
:100F600036E0A14B5B68DB03ECD59F4B1B689B0312
:100F700003D56368002B00D107E223689B0772D575
:100F8000994B5B680C221A425DD0974B5A680C2330
:100F90001340082B53D0E368002B00D185E0924A20
:100FA000136801210B43136000F0C0FB05008E4B5A
:100FB0001B689B0770D400F0B9FB401B0228F6D9D0
:100FC0000320E0E1884A116880235B020B43136031
:100FD0006368002B25D000F0A9FB0500824B1B683D
:100FE0009B03CAD400F0A2FB401B6428F6D903205F
:100FF000C9E1052B09D07C4B1A687C490A401A606C
:101000001A687B490A401A60E2E7774B1968802228
:10101000D2020A431A601968802252020A431A60F7
:10102000D6E700F083FB05006F4B1B689B03A4D53C
:1010300000F07CFB401B6428F6D90320A3E16A4B37
:101040005B68DB03A7D4684B1B689B0703D5E36889
:10105000012B00D09BE164490B68F822934322697D
:10106000D20013430B6023681B0744D5E369002BB0
:101070002ED05D4A536A01210B43536200F056FBA8
:101080000500594B5B6A9B0735D400F04FFB401BB2
:101090000228F6D9032076E153490B68F8229343DE
:1010A0002269D20013430B60DDE74F4A1368012128
:1010B0008B43136000F03AFB05004B4B1B689B070A
:1010C000D1D500F033FB401B0228F6D903205AE1AA
:1010D000454A536A01218B43536200F027FB050008
:1010E000414B5B6A9B0706D500F020FB401B0228A2
:1010F000F6D9032047E123685B0700D480E03A4B30
:10110000DB69DB001DD4384AD169802040050143EA
:10111000D161D36903400193019B0125354B1B68C5
:10112000DB0510D5A368012B21D0002B36D12E4B27
:101130001A6A01218A431A621A6A03318A431A62BF
:101140001AE00025EAE72B4A116880235B000B4375
:10115000136000F0EBFA0600264B1B68DB05E1D4B8
:1011600000F0E4FA801B6428F6D903200BE11E4A44
:10117000136A01210B431362A368002B24D000F0F3
:10118000D5FA0600184B1B6A9B0737D400F0CEFA3D
:10119000801B194B9842F5D90320F4E0052B09D0A8
:1011A000114B1A6A01218A431A621A6A03318A436F
:1011B0001A62E1E70C4B1A6A04210A431A621A6A9E
:1011C00003390A431A62D7E700F0B0FA0600064B6B
:1011D0001B6A9B0712D500F0A9FA801B064B9842A8
:1011E000F5D90320CFE0C04600100240FFFFFEFF0C
:1011F000FFFFFBFF0070004088130000012D33D07B
:101200002368DB0610D56369012B33D0053351D138
:10121000654A536B04218B435363536BF4318B4307
:10122000A169C9000B435363236A002B00D1B0E0CE
:101230005D4A51680C220A40082A00D18AE0022B3C
:101240004FD0594A136859490B40136000F06EFAA9
:101250000400554B1B689B017AD500F067FA001B10
:101260000228F6D903208EE04F4AD36950490B403B
:10127000D361C5E74C4B5A6B04210A435A635A6B3E
:1012800003390A435A6300F051FA0500464B5B6B81
:101290009B0706D400F04AFA401B0228F6D9032027
:1012A00071E041494B6BF8229343A269D20013438A
:1012B0004B63B9E73C4B5A6B04210A435A635A6BA0
:1012C00003398A435A6300F031FA0500364B5B6BF1
:1012D0009B07A9D500F02AFA401B0228F6D9032063
:1012E00051E0314A136831490B40136000F01EFA97
:1012F00005002D4B1B689B0106D500F017FA401B1B
:101300000228F6D903203EE0274BDA6A0F218A43F0
:10131000E16A0A43DA625A6826490A40A16A606AA9
:1013200001430A435A601968802252040A431A6032
:1013300000F0FCF904001C4B1B689B0106D400F074
:10134000F5F9001B0228F6D903201CE000201AE062
:10135000002018E0012B1ED0134B5A68D96A802355
:101360005B021340606A834217D10F230B40E16A8E
:101370008B4214D1F0239B031A40A36A9A4210D1E6
:10138000002000E0012002B070BD0120FBE7012039
:10139000F9E70020F7E70120F5E70120F3E7012056
:1013A000F1E70120EFE7C04600100240FFFFFFFE1B
:1013B000FFFFFFEFFFFFC2FF10B588B004AA164B76
:1013C00013CB13C21B6813606A46144B13CB13C2B2
:1013D0001B681360124B5A680C231340082B02D071
:1013E000104808B010BD910C0733194004A8445CA4
:1013F0000B49C96A0B406946C95CD30304D5094847
:10140000FEF782FE6043ECE763011B1B9801C01AE4
:10141000C00000190002E4E790290008A429000890
:101420000010024000127A0070B504000D00002880
:1014300000D17EE0434B1A68012313408B420AD24D
:1014400040490B68012293432B430B600B681A4001
:10145000AA4200D06FE023689A070ED55B0705D536
:10146000394A5168E023DB000B435360364A536826
:10147000F0218B43A1680B4353602368DB072DD514
:101480006368012B1ED0022B22D02F4A12689207CC
:1014900053D52D494A680320824313434B6000F023
:1014A00045F90600284B5B680C221A4063689B00D4
:1014B0009A4213D000F03AF9801B244B9842F1D99C
:1014C000032035E0204A12689203E2D401202FE085
:1014D0001D4A12689201DCD4012029E0194B1A68D8
:1014E00001231340AB4209D916490B6801229343EB
:1014F0002B430B600B681A40AA4220D123685B077C
:1015000006D5114A536812490B40E1680B435360FA
:10151000FFF752FF0C4B5A6812090F2313400D4A74
:10152000D35CD8400C4B1860022000F0BBF80020C0
:1015300070BD0120FCE70120FAE70120F8E7012057
:10154000F6E7C04600200240001002408813000069
:10155000FFF8FFFFB829000808000020014B1868B9
:101560007047C0460800002010B5FFF7F7FF044B96
:101570005A68120A07231340024AD35CD84010BDB0
:1015800000100240C829000870B582B0040003684A
:10159000DB0337D53D4BDB69DB0049D43B4AD169DE
:1015A000802040050143D161D36903400193019B31
:1015B0000125374B1B68DB053CD5344B1A6AC02329
:1015C0009B00110019401A4213D0626813408B42ED
:1015D0000FD02E4B186A2F4A02401E6A8021490202
:1015E00031431962196A2C4E314019621A62C307DD
:1015F00034D4264A136A27490B4061680B431362AF
:10160000012D3AD02368DB0706D5204A136B03214E
:101610008B43A1680B43136323689B0632D51B4A97
:10162000136B10218B43E1680B43136300202AE006
:101630000025BEE7164A116880235B000B43136048
:1016400000F074F80600124B1B68DB05B5D400F0FF
:101650006DF8801B6428F6D9032014E000F066F8CA
:1016600006000A4B1B6A9B07C3D400F05FF8801B7F
:101670000A4B9842F5D9032005E0D36908490B408D
:10168000D361BFE7002002B070BDC0460010024029
:1016900000700040FFFCFFFFFFFFFEFF881300000B
:1016A000FFFFFFEF10B504000F4B1978FA20800000
:1016B000FEF72AFD01000D4B1868FEF725FD00F02E
:1016C0003DF900280DD1032C01D901200AE0013099
:1016D00000222100404200F0F5F8054B1C6000207C
:1016E00000E0012010BDC0460000002008000020DE
:1016F0000400002010B5064A136810210B43136044
:101700000220FFF7CFFFFEF7F9FF002010BDC04613
:1017100000200240034A1168034B1B785B181360DA
:101720007047C046A405002000000020014B186847
:101730007047C046A4050020F0B583B0002357E0F1
:1017400084685F000326BE40B4432600CC68BC40DA
:1017500034438460446894434A6816090122324045
:101760009A402243426053E0DC080834A400265823
:1017700005321A4092000F279740BE430F699740E9
:101780003A003243225057E0022600E00026A640ED
:1017900034003C4302329200424E9451424A146853
:1017A000EA432600AE434F68FF0301D52C432600D1
:1017B0003D4C26606468260016404F68BF0301D583
:1017C0002C432600384C6660A468260016404F68FB
:1017D000FF0201D52C432600334CA660E46822406A
:1017E0004E68B60201D52A0022432F4CE260013335
:1017F0000C682200DA4052D001229A4025001540A0
:101800001442F4D003244E683440013C012C97D993
:1018100003224C682240032A09D0C2685E000324D8
:10182000B440A24314008A68B2402243C26003223B
:101830004C682240022A97D004685E0003221700F9
:10184000B740BC434F683A40B24022430260C022D6
:1018500092024C681442CAD0144CA6690122164365
:10186000A661A46922400192019A9A08941CA400DE
:101870000C4EA75903241C40A4000F26A640B743D2
:101880009026F605B04281D0094EB04205D0094EEF
:10189000B04200D178E7052679E7012677E703B063
:1018A000F0BDC046000001400004014000100240AD
:1018B0000004004800080048002A01D081617047F8
:1018C0008162FCE770B5002811DB8308134EC0333A
:1018D0009B009D5903242040C000FF221400844037
:1018E000A54389010A4082402A439A5170BD0F23C3
:1018F0000340083B9B0806339B00094A9446634417
:101900005C6803221040C000FC3215008540AC43E7
:1019100089010A40824022435A60E7E700E100E083
:1019200000ED00E0002805DB1F2318401E3B83402C
:10193000014A13607047C04600E100E0013880238F
:101940005B0498420FD2094A50600948036A1B029F
:101950001B0AC02109060B4303620023936007336F
:101960001360002070470120FCE7C04610E000E053
:1019700000ED00E070477047704770477047704750
:10198000704770477047000030B5036A01229343E7
:101990000362036A426884697325AC430D682C4373
:1019A0000225AB438D682B43114DA84205D0114D44
:1019B000A84202D0104DA84205D10825AB43CD68FE
:1019C0002B430425AB430A4DA84205D0094DA8423C
:1019D00002D0094DA84205D1084D2A404D692A433D
:1019E0008D692A43426084614A684263036230BD64
:1019F000002C01400044014000480140FFFCFFFF73
:101A000070B5036A184A13400362036A4468C269E6
:101A10007325AA430E681643144A13408A681202BB
:101A20001343134A904216D0114A904205D0114AEE
:101A3000904202D0104A904207D1104A22404C698D
:101A4000240114438A6915012C434460C6614A6825
:101A5000C263036270BD0A4A1A40CB681B0213437B
:101A6000084A1340E0E7C046FFFEFFFFFFFDFFFF0F
:101A7000002C01400044014000480140FFCFFFFF1F
:101A8000FFF7FFFFFFFBFFFF30B5036A114A13406A
:101A90000362036A4568C2690F4C22400C68240245
:101AA00022430E4C1C408B681B0323430C4CA0426A
:101AB00005D00C4CA04202D00B4CA04204D10B4CE0
:101AC00025404C69A40125434560C2614A6802640F
:101AD000036230BDFFEFFFFFFF8CFFFFFFDFFFFF63
:101AE000002C01400044014000480140FFBFFFFFBF
:101AF00030B5036A046A0125AC4304628469EF359A
:101B0000AC43120122430A24A3430B4382610362C4
:101B100030BD000030B5036A1024A343036284691A
:101B2000036A054D2C4012032243A024A34309015C
:101B300019438261016230BDFF0FFFFF836870228D
:101B400093430B4307210B43836070473D23C35CE2
:101B5000012B23D13C330222C2540268D3680121F5
:101B60000B43D36003680F4A93420CD08022D20506
:101B7000934208D00C4A934205D01A6801210A43C7
:101B80001A6000200BE0996807220A40062A07D055
:101B90001A6801210A431A60002000E00120704702
:101BA0000020FCE7002C01400004004010B50400B8
:101BB00003681A69920711D5DA6892070ED50322D5
:101BC00052421A610123037703689B699B0700D186
:101BD00084E09023C35898470023237723681A6929
:101BE000520714D5DA68520711D5052252421A61FC
:101BF0000223237723689A69C0239B001A4200D1ED
:101C000074E09023E358200098470023237723684B
:101C10001A69120711D5DA6812070ED50922524245
:101C20001A61042323772368DB699B0767D090231D
:101C3000E358200098470023237723681A69D206C7
:101C400013D5DA68D20610D5112252421A61082340
:101C500023772368DA69C0239B001A4258D0902367
:101C6000E358200098470023237723681A69D20796
:101C700009D5DA68D20706D5022252421A618023BA
:101C8000E3582000984723681A69120609D5DA68D4
:101C9000120606D5812252421A61B023E358200071
:101CA000984723681A69520609D5DA68520606D59C
:101CB000412252421A618823E35820009847236842
:101CC0001A69920609D5DA68920606D5212252428F
:101CD0001A61A823E3582000984710BD9823C358E1
:101CE00098479C23E3582000984775E79823E358CA
:101CF000200098479C23E3582000984785E79823C5
:101D0000E358200098479C23E3582000984792E727
:101D10009823E358200098479C23E35820009847D5
:101D2000A1E7000003681E4A904206D08022D20537
:101D3000904202D01B4A904203D1702293434A68DA
:101D40001343174A90420FD08022D20590420BD005
:101D5000144A904208D0144A904205D0134A904247
:101D600002D0134A904203D1124A1340CA68134367
:101D7000802293434A69134303608B68C3620B68F4
:101D80008362074B984205D0084B984202D0084B1B
:101D9000984201D10B690363012343617047C04638
:101DA000002C01400004004000200040004401409D
:101DB00000480140FFFCFFFF30B5036A1022934347
:101DC0000362036A45688469164A14400A6812026D
:101DD0001443202293438A6812011343124A90420B
:101DE00016D0114A904205D0104A904202D0104AB3
:101DF000904207D10F4A2A404D69AD0015438A69C8
:101E000092001543456084614A688263036230BD75
:101E1000802293431A00CB681B0113434022934353
:101E2000DFE7C046FF8CFFFF002C0140004401406B
:101E300000480140FFF3FFFF10B504003C23C35CE2
:101E4000012B24D03C230120E054082A1AD008D8C2
:101E5000002A12D0042A0CD12068FFF7ADFF002021
:101E600007E00C2A04D12068FFF70EFE002000E0F6
:101E700001203C230022E25410BD2068FFF784FDBE
:101E80000020F6E72068FFF7BBFD0020F1E7022005
:101E9000F2E70000F0B517001D00036A012293432A
:101EA00003628269066A0E4B984209D08023DB05E3
:101EB000984205D00B4B984202D001231A4302E00E
:101EC00003239A433A43F0239A432D01FF242C40E5
:101ED0002243E63B9E430B40334382610362F0BDE5
:101EE000002C01400004004030B58468034D2C40B4
:101EF0001B0213430B432343836030BDFF00FFFFEE
:101F000010B504003C23C35C012B00D178E03C23D6
:101F10000122C25401330132C25402689368394825
:101F2000034093600B68602B50D02AD8402B58D0C8
:101F30000CD9502B23D1CA6849682068FFF7D8FD17
:101F400050212068FFF7FAFD002005E0202B0ED07D
:101F500009D9302B0BD001203D230122E254013B53
:101F60000022E25410BD002B01D0102B05D1190026
:101F70002068FFF7E3FD0020EEE70120ECE70120F9
:101F8000EAE780225201934236D0802292019342A6
:101F90000DD1CB684A6889682068FFF7A5FF2268E1
:101FA00091688023DB010B4393600020D4E7702B02
:101FB00024D1CB684A6889682068FFF795FF2268BA
:101FC000936877210B4393600020C5E7CA6849688E
:101FD0002068FFF79FFD60212068FFF7AFFD00201C
:101FE000BAE7CA6849682068FFF782FD4021206887
:101FF000FFF7A4FD0020AFE70020ADE70120ABE72D
:102000000220AFE78800FFFF8023134AC250043349
:10201000124AC2500433124AC2500433114AC25009
:102020000433114AC2500433104AC2500433104AD8
:10203000C25004330F4AC25004330F4AC250043313
:102040000E4AC25004330E4AC25004330D4AC250E5
:1020500004330D4AC2507047C106000875190008C4
:102060008119000883190008791900087B190008F4
:10207000771900087D1900087F19000885190008E4
:10208000F9230008FB230008FD23000870B5041E97
:102090002FD03D23C35C002B1CD03D25022363556C
:1020A000210001C9FFF73EFE01234622A354083A4E
:1020B000A3540132A3540132A3540132A354013278
:1020C000A3540132A3540132A3540132A3546355E3
:1020D000002070BD3C330022C254FFF795FFA36C73
:1020E000002B03D02000A36C9847D6E7024BA364D3
:1020F000F8E70120EDE7C046DD07000870B5041ED3
:102100002FD03D23C35C002B1CD03D2502236355FB
:10211000210001C9FFF706FE01234622A354083A15
:10212000A3540132A3540132A3540132A354013207
:10213000A3540132A3540132A3540132A354635572
:10214000002070BD3C330022C254FFF75DFFA36D39
:10215000002B03D02000A36D9847D6E7024BA36560
:10216000F8E70120EDE7C046B1070008F0B5C64624
:1021700000B504000D00002856D03D23C35C002BA1
:1021800043D03D260223A3552268936827490B407C
:102190009360210001C9FFF7C5FD216888688A693D
:1021A0000F6A2B6818438046214B1340AA6912021C
:1021B000A86802431A431F4B1A40EB691B02E868E8
:1021C00003431A432B691B01286A0003034313438B
:1021D000AA2297436A686D692D012A433A43404613
:1021E000886021688B6123681A6201234622A35408
:1021F000083AA3540132A3540332A3540132A35426
:10220000A355002080BCB846F0BD3C330022C25428
:10221000FFF7FAFE236F002B03D02000236F9847AF
:10222000AFE7054B2367F8E70120EBE7F8BFFFFFB7
:10223000FCFCFFFF0303FFFFC90800087047000014
:10224000F0B58BB004000D00002868D03D23C35CBE
:10225000002B55D03D260223A355210001C9FFF7CD
:1022600061FDAB68032229682068FFF713FE22682E
:1022700093690C218B4393612268936969680B43CE
:1022800093612268536880210B43536022689368EE
:102290007027BB4393602268936840390B43936077
:1022A0002268936839398B439360226893680339B5
:1022B0000B439360002307930893039709930693B6
:1022C0000593EB680193049303A92068FFF774FD5D
:1022D00022685368BB4353602268536850210B4304
:1022E000536001234622A354083AA3540132A35455
:1022F0000332A3540132A354A35500200BB0F0BD08
:102300003C330022C254FFF77FFEA36F002B03D0A3
:102310002000A36F98479DE7024BA367F8E70120D1
:10232000ECE7C0463D22000830B53C23C35C012BDE
:1023300025D03C230122C25401330132C254036828
:102340005A689C687025AA430D682A435A6003683E
:102350000C4A934206D08022D205934202D00A4A08
:10236000934204D1802294434A6814439C603D23E5
:102370000122C254013B0022C254002030BD022081
:10238000FCE7C046002C01400004004010B53C238F
:10239000C35C012B21D03C2201238354104BCC6819
:1023A00023408C6823430F4C23404C6823430E4C3E
:1023B00023400C6823430D4C23400C6923430C4CF1
:1023C00023404C6923430B4C2340C9690B430168EC
:1023D0004B6400238354002010BD0220FCE7C0465C
:1023E000FFFCFFFFFFFBFFFFFFF7FFFFFFEFFFFF1C
:1023F000FFDFFFFFFFBFFFFF704770477047000020
:1024000010B5040083680269134342691343C2692B
:10241000134301680A684A48024013430B6022686C
:10242000536848490B40E1680B435360226AA36933
:102430001A4321688B684448034013438B60434B25
:102440001A6B03231340022B27D022D8002B26D04F
:10245000012B26D10333E06980221202904224D05E
:10246000042B65D054D8002B5CD0022B4ED13848B9
:1024700063685B0818186168FDF746FE0004000CED
:102480000200103A334B9A4257D82368D860002094
:1024900044E0032B07D1013BDDE70823DBE7002302
:1024A000D9E71023D7E71023D5E7042B2BD020D86A
:1024B000002B22D0022B1AD12548400063685B080C
:1024C000C0186168FDF720FE83B20004000C010013
:1024D0001039204A91422ED80F2293431A00400807
:1024E0000723184010432368D860002016E001201D
:1024F00014E0082BE1D0012010E0FFF735F80028A8
:10250000DBD100200AE0FEF757FFF8E7012005E0E5
:10251000082B02D180200002AAE701200023636675
:10252000A36610BDFFF720F80028A1D10020F5E731
:10253000FEF742FFF8E70120F0E70120EEE7C04692
:10254000F369FFFFFFCFFFFFFFF4FFFF0010024022
:1025500000127A00EFFF0000436ADB0706D502682D
:1025600053682C490B40816A0B435360436A9B07B5
:1025700006D50268536828490B40C16A0B43536073
:10258000436A5B0706D50268536824490B40016B18
:102590000B435360436A1B0706D502685368204902
:1025A0000B40416B0B435360436ADB0606D5026860
:1025B00093681C490B40816B0B439360436A9B06F5
:1025C00006D50268936818490B40C16B0B439360B2
:1025D000436A5B060BD50268536814490B40016CD3
:1025E0000B43536080235B03026C9A420AD0436A18
:1025F0001B0606D5026853680D490B40816C0B43DE
:1026000053607047026853680A490B40416C0B43A2
:102610005360ECE7FFFFFDFFFFFFFEFFFFFFFBFF47
:10262000FF7FFFFFFFEFFFFFFFDFFFFFFFFFEFFF7A
:10263000FFFFF7FFFFFF9FFFF8B5CE46474680B587
:1026400006000D0017009946089B98463368DC6920
:102650002C40641B63425C41BC4253D1434601336E
:10266000F4D0FFF763F84B46C01A40452CD84346D8
:10267000002B29D033681A685207E7D5DA691205AA
:10268000E4D5802212011A62EFF31080012282F356
:10269000108831680B681E4C23400B6080F3108853
:1026A000EFF3108082F3108831688B6893438B605E
:1026B00080F310882023B367F3677F32B35054331D
:1026C0000022F25403201EE0EFF31080012282F377
:1026D000108831680B680E4C23400B6080F3108823
:1026E000EFF3108082F3108831688B6893438B601E
:1026F00080F310882023B367F36754330022F25429
:10270000032000E00020C0BCB946B046F8BDC0467A
:102710005FFEFFFF30B583B0040080230022C2506B
:10272000FFF704F805002268126813070DD4236828
:102730001B685B0716D42023A367E3670023236687
:102740007422A354002003B030BD80210C4B0093B1
:102750000300002289032000FFF76EFF0028E6D067
:102760000320F0E78021064B00932B000022C903D1
:102770002000FFF761FF0028DDD00320E3E7C0461B
:10278000FFFFFF0110B5041E2ED0836F002B21D058
:102790002423A3672268136801218B431360200060
:1027A000FFF72EFE012814D0636A002B18D122688F
:1027B00053680E490B405360226893682A218B436B
:1027C00093602268136829390B4313602000FFF7D8
:1027D000A1FF10BD74330022C254FEF7E5F8D7E71D
:1027E0002000FFF7B9FEE2E70120F2E7FFB7FFFFA5
:1027F0007047000010B50B4B0B4A01E002CA02C340
:102800000A498B42FAD30A4B01E0002204C3094A69
:102810009342FAD3FFF7ECFF00F082F8FDF724FFB4
:10282000FEE7C04600000020D82900080C00002068
:102830000C000020A8050020FEE710B5FFF7FCFF04
:1028400010B5FFF7F9FF10B5FFF7F6FF10B5FFF76A
:10285000F3FF10B5FFF7F0FF10B5FFF7EDFF10B570
:10286000FFF7EAFF10B5FFF7E7FF10B5FFF7E4FF4A
:1028700010B5FFF7E1FF10B5FFF7DEFF10B5FFF76A
:10288000DBFF10B5FFF7D8FF10B5FFF7D5FF10B588
:10289000FFF7D2FF10B5FFF7CFFF10B5FFF7CCFF62
:1028A00010B5FFF7C9FF10B5FFF7C6FF10B5FFF76A
:1028B000C3FF10B5FFF7C0FF10B5FFF7BDFF10B5A0
:1028C000FFF7BAFF10B50248FFF770F910BDC04618
:1028D0001C01002010B5FFF7F5FF10BD10B5024830
:1028E000FFF764F910BDC046D001002010B5FFF716
:1028F000F5FF10BD10B50248FFF758F910BDC046EE
:102900008402002010B5FFF7F5FF10BD10B5FEF7EB
:1029100001FFFEF73FF910BD10B5FFF7F7FF10BD3F
:1029200070B500260C4D0D4C641BA410A64209D1B5
:10293000002600F021F80A4D0A4C641BA410A642A0
:1029400005D170BDB300EB5898470136EEE7B300F0
:10295000EB5898470136F2E7D0290008D029000843
:10296000D0290008D429000803008218934200D11E
:10297000704719700133F9E7F8B5C046F8BC08BCD8
:102980009E467047F8B5C046F8BC08BC9E467047E6
:1029900002030405060708090A0B0C0D0E0F1010A0
:1029A000000000000102030405060708090A0B0CD9
:1029B0000D0E0F10000000000000000000000000DD
:1029C00001020304060708090000000001020304D5
:0429D000E900000812
:0429D400C100000836
:0C29D800010000000400000000127A0062
:04000005080027F5D3
:00000001FF
